{
  "contractName": "Consumer",
  "abi": [
    {
      "inputs": [
        {
          "internalType": "address",
          "name": "oracleAddr",
          "type": "address"
        }
      ],
      "stateMutability": "nonpayable",
      "type": "constructor"
    },
    {
      "inputs": [],
      "name": "oracle",
      "outputs": [
        {
          "internalType": "contract IOracle",
          "name": "",
          "type": "address"
        }
      ],
      "stateMutability": "view",
      "type": "function",
      "constant": true
    },
    {
      "inputs": [],
      "name": "foo",
      "outputs": [],
      "stateMutability": "nonpayable",
      "type": "function"
    }
  ],
  "bytecode": "0x608060405234801561001057600080fd5b506040516103703803806103708339818101604052602081101561003357600080fd5b8101908080519060200190929190505050806000806101000a81548173ffffffffffffffffffffffffffffffffffffffff021916908373ffffffffffffffffffffffffffffffffffffffff160217905550506102dc806100946000396000f3fe608060405234801561001057600080fd5b50600436106100365760003560e01c80637dc0d1d01461003b578063c29855781461006f575b600080fd5b610043610079565b604051808273ffffffffffffffffffffffffffffffffffffffff16815260200191505060405180910390f35b61007761009d565b005b60008054906101000a900473ffffffffffffffffffffffffffffffffffffffff1681565b600060405160200180807f4254432f55534400000000000000000000000000000000000000000000000000815250600701905060405160208183030381529060405280519060200120905060008060008060009054906101000a900473ffffffffffffffffffffffffffffffffffffffff1673ffffffffffffffffffffffffffffffffffffffff166354f6127f856040518263ffffffff1660e01b81526004018082815260200191505060606040518083038186803b15801561015f57600080fd5b505afa158015610173573d6000803e3d6000fd5b505050506040513d606081101561018957600080fd5b8101908080519060200190929190805190602001909291908051906020019092919050505092509250925082610227576040517f08c379a000000000000000000000000000000000000000000000000000000000815260040180806020018281038252601d8152602001807f4552524f523a636f756c64206e6f74206765742074686520707269636500000081525060200191505060405180910390fd5b607842034210156102a0576040517f08c379a00000000000000000000000000000000000000000000000000000000081526004018080602001828103825260148152602001807f4552524f523a20707269636520746f6f206f6c6400000000000000000000000081525060200191505060405180910390fd5b5050505056fea26469706673582212208905f26212f1e99c77b1031037716e06e81b91e3c72458e50c3b663e35c29df264736f6c63430007060033",
  "immutableReferences": {},
  "source": "pragma solidity ^0.7.1;\r\n\r\nimport './IOracles.sol';\r\n\r\ncontract Consumer{\r\n    IOracle public oracle;\r\n\r\n    constructor(address oracleAddr) {\r\n        oracle = IOracle(oracleAddr);\r\n    }\r\n\r\n    function foo() external{\r\n        bytes32 key = keccak256(abi.encodePacked('BTC/USD'));\r\n\r\n        (bool result,uint timestamp,uint data) = oracle.getData(key);\r\n        require(result,'ERROR:could not get the price');\r\n        require(block.timestamp >= block.timestamp - 2 minutes,'ERROR: price too old');\r\n        // do you anything price \r\n    }\r\n}",
  "sourcePath": "E:/Development_practice/DEFI_projects/5_Oracles/contracts/Consumer.sol",
  "compiler": {
    "name": "solc",
    "version": "0.7.6+commit.7338295f.Emscripten.clang"
  },
  "schemaVersion": "3.3.2",
  "updatedAt": "2021-02-02T21:01:22.520Z",
  "networkType": "ethereum",
  "devdoc": {
    "kind": "dev",
    "methods": {},
    "version": 1
  },
  "userdoc": {
    "kind": "user",
    "methods": {},
    "version": 1
  }
}