{
  "contractName": "Oracle",
  "abi": [
    {
      "inputs": [
        {
          "internalType": "address",
          "name": "_admin",
          "type": "address"
        }
      ],
      "stateMutability": "nonpayable",
      "type": "constructor"
    },
    {
      "inputs": [
        {
          "internalType": "bytes32",
          "name": "",
          "type": "bytes32"
        }
      ],
      "name": "data",
      "outputs": [
        {
          "internalType": "uint256",
          "name": "date",
          "type": "uint256"
        },
        {
          "internalType": "uint256",
          "name": "payload",
          "type": "uint256"
        }
      ],
      "stateMutability": "view",
      "type": "function",
      "constant": true
    },
    {
      "inputs": [
        {
          "internalType": "address",
          "name": "",
          "type": "address"
        }
      ],
      "name": "reporters",
      "outputs": [
        {
          "internalType": "bool",
          "name": "",
          "type": "bool"
        }
      ],
      "stateMutability": "view",
      "type": "function",
      "constant": true
    },
    {
      "inputs": [
        {
          "internalType": "address",
          "name": "reporter",
          "type": "address"
        },
        {
          "internalType": "bool",
          "name": "isReporter",
          "type": "bool"
        }
      ],
      "name": "updateReporter",
      "outputs": [],
      "stateMutability": "nonpayable",
      "type": "function"
    },
    {
      "inputs": [
        {
          "internalType": "bytes32",
          "name": "_key",
          "type": "bytes32"
        },
        {
          "internalType": "uint256",
          "name": "_payload",
          "type": "uint256"
        }
      ],
      "name": "updateData",
      "outputs": [],
      "stateMutability": "nonpayable",
      "type": "function"
    },
    {
      "inputs": [
        {
          "internalType": "bytes32",
          "name": "_key",
          "type": "bytes32"
        }
      ],
      "name": "getData",
      "outputs": [
        {
          "internalType": "bool",
          "name": "result",
          "type": "bool"
        },
        {
          "internalType": "uint256",
          "name": "date",
          "type": "uint256"
        },
        {
          "internalType": "uint256",
          "name": "paylad",
          "type": "uint256"
        }
      ],
      "stateMutability": "view",
      "type": "function",
      "constant": true
    }
  ],
  "bytecode": "0x608060405234801561001057600080fd5b506040516105763803806105768339818101604052602081101561003357600080fd5b810190808051906020019092919050505080600260006101000a81548173ffffffffffffffffffffffffffffffffffffffff021916908373ffffffffffffffffffffffffffffffffffffffff160217905550506104e1806100956000396000f3fe608060405234801561001057600080fd5b50600436106100575760003560e01c80630147fb0c1461005c5780631ec6e24f146100a55780632cc1cd9e146100f557806354f6127f1461014f578063a8200ab7146101a1575b600080fd5b6100886004803603602081101561007257600080fd5b81019080803590602001909291905050506101d9565b604051808381526020018281526020019250505060405180910390f35b6100f3600480360360408110156100bb57600080fd5b81019080803573ffffffffffffffffffffffffffffffffffffffff1690602001909291908035151590602001909291905050506101fd565b005b6101376004803603602081101561010b57600080fd5b81019080803573ffffffffffffffffffffffffffffffffffffffff16906020019092919050505061031a565b60405180821515815260200191505060405180910390f35b61017b6004803603602081101561016557600080fd5b810190808035906020019092919050505061033a565b604051808415158152602001838152602001828152602001935050505060405180910390f35b6101d7600480360360408110156101b757600080fd5b8101908080359060200190929190803590602001909291905050506103aa565b005b60016020528060005260406000206000915090508060000154908060010154905082565b600260009054906101000a900473ffffffffffffffffffffffffffffffffffffffff1673ffffffffffffffffffffffffffffffffffffffff163373ffffffffffffffffffffffffffffffffffffffff16146102c0576040517f08c379a00000000000000000000000000000000000000000000000000000000081526004018080602001828103825260118152602001807f4552524f523a206f6e6c792061646d696e00000000000000000000000000000081525060200191505060405180910390fd5b806000808473ffffffffffffffffffffffffffffffffffffffff1673ffffffffffffffffffffffffffffffffffffffff16815260200190815260200160002060006101000a81548160ff0219169083151502179055505050565b60006020528060005260406000206000915054906101000a900460ff1681565b6000806000806001600086815260200190815260200160002060000154141561036d5760008060009250925092506103a3565b60018060008681526020019081526020016000206000015460016000878152602001908152602001600020600101549250925092505b9193909250565b6000803373ffffffffffffffffffffffffffffffffffffffff1673ffffffffffffffffffffffffffffffffffffffff16815260200190815260200160002060009054906101000a900460ff16610468576040517f08c379a000000000000000000000000000000000000000000000000000000000815260040180806020018281038252601d8152602001807f4552524f523a20796f7520617265206e6f7420617574686f72697a656400000081525060200191505060405180910390fd5b604051806040016040528042815260200182815250600160008481526020019081526020016000206000820151816000015560208201518160010155905050505056fea2646970667358221220da84ac4413648a648bc8aaa9f2e22deb0fa7bb12e1437c65716ea8e49508180b64736f6c63430007060033",
  "immutableReferences": {},
  "source": "pragma solidity ^0.7.1;\r\n\r\ncontract Oracle{\r\n    struct Data{\r\n        uint date;\r\n        uint payload;\r\n    }\r\n\r\n    mapping(address => bool) public reporters;\r\n    mapping(bytes32 => Data) public data;\r\n    address admin;\r\n\r\n    constructor(address _admin)  {\r\n        admin = _admin;\r\n    }\r\n\r\n    function updateReporter(address reporter,bool isReporter) external{\r\n        require(msg.sender == admin,\"ERROR: only admin\");\r\n        reporters[reporter] = isReporter;\r\n    }\r\n\r\n    function updateData(bytes32 _key,uint _payload) external{\r\n        require(reporters[msg.sender],\"ERROR: you are not authorized\");\r\n        data[_key] = Data(block.timestamp,_payload);\r\n    }\r\n\r\n    function getData(bytes32 _key) external view returns(bool result,uint date,uint paylad){\r\n        if(data[_key].date == 0 ){\r\n            return (false,0,0);\r\n        }\r\n\r\n        return (true,data[_key].date,data[_key].payload);\r\n\r\n    }\r\n\r\n}",
  "sourcePath": "E:/Development_practice/DEFI_projects/5_Oracles/contracts/Oracle.sol",
  "compiler": {
    "name": "solc",
    "version": "0.7.6+commit.7338295f.Emscripten.clang"
  },
  "schemaVersion": "3.3.2",
  "updatedAt": "2021-02-02T18:34:05.527Z",
  "networkType": "ethereum",
  "devdoc": {
    "kind": "dev",
    "methods": {},
    "version": 1
  },
  "userdoc": {
    "kind": "user",
    "methods": {},
    "version": 1
  }
}